:100000000C9462000C948A000C948A000C948A0070
:100010000C948A000C948A000C948A000C948A0038
:100020000C948A000C948A000C948A000C948A0028
:100030000C948A000C948A000C948A000C948A0018
:100040000C943E020C948A000C94AE020C9488022C
:100050000C948A000C948A000C948A000C948A00F8
:100060000C948A000C948A000000000023002600F3
:10007000290000000000240027002A0000000000E2
:10008000250028002B0004040404040404040202D4
:100090000202020203030303030301020408102007
:1000A0004080010204081020010204081020000012
:1000B0000008000201000003040700000000000027
:1000C0000000250411241FBECFEFD8E0DEBFCDBF56
:1000D00011E0A0E0B1E0E8EFF8E002C005900D9279
:1000E000A838B107D9F722E0A8E8B1E001C01D9215
:1000F000A333B207E1F710E0C2E6D0E004C02197D5
:10010000FE010E947404C136D107C9F70E94E002C3
:100110000C947A040C940000833081F028F4813030
:1001200099F08230A9F008958730A9F08830C9F09D
:100130008430B1F4809180008F7D03C08091800075
:100140008F7780938000089584B58F7784BD08955C
:1001500084B58F7DFBCF8091B0008F778093B00006
:1001600008958091B0008F7DF9CF1F93CF93DF93D7
:10017000282F30E0F901E255FF4F8491F901E6564E
:10018000FF4FD491F901EA57FF4FC491CC23A9F056
:10019000162F81110E948C00EC2FF0E0EE0FFF1F54
:1001A000E458FF4FA591B4918FB7F894EC911111D9
:1001B00008C0D095DE23DC938FBFDF91CF911F91D4
:1001C0000895DE2BF8CFCF93DF9390E0FC01E65645
:1001D000FF4F24918A579F4FFC0184918823D1F0CF
:1001E00090E0880F991FFC01EE58FF4FA591B49144
:1001F000FC01E458FF4FC591D49161110EC09FB727
:10020000F8948C91E22FE0958E238C932881E22341
:10021000E8839FBFDF91CF9108958FB7F894EC9159
:10022000E22BEC938FBFF6CFAF92BF92CF92DF92CB
:10023000EF92FF920F931F93CF93DF936C017B019B
:100240008B01040F151FEB015E01AE18BF08C0172C
:10025000D10759F06991D601ED91FC910190F0819F
:10026000E02DC6010995892B79F7C501DF91CF9162
:100270001F910F91FF90EF90DF90CF90BF90AF90C4
:100280000895FC01538D448D252F30E0842F90E09C
:10029000821B930B541710F0CF9608950197089581
:1002A000FC01918D828D981761F0A28DAE0FBF2F4A
:1002B000B11D5D968C91928D9F5F9F73928F90E0A0
:1002C00008958FEF9FEF0895FC01918D828D98170F
:1002D00031F0828DE80FF11D858D90E008958FEF4C
:1002E0009FEF0895FC01918D228D892F90E0805C15
:1002F0009F4F821B91098F739927089586E991E09A
:100300000E94720121E0892B09F420E0822F0895D8
:1003100080E090E0892B29F00E947E0181110C94ED
:1003200000000895FC01A48DA80FB92FB11DA35A98
:10033000BF4F2C91848D90E001968F739927848F05
:10034000A689B7892C93A089B1898C918370806428
:100350008C93938D848D981306C00288F389E02DC9
:1003600080818F7D80830895EF92FF920F931F937A
:10037000CF93DF93EC0181E0888F9B8D8C8D981358
:100380001AC0E889F989808185FF15C09FB7F89464
:10039000EE89FF896083E889F989808183708064B0
:1003A00080839FBF81E090E0DF91CF911F910F91FB
:1003B000FF90EF900895F62E0B8D10E00F5F1F4F0A
:1003C0000F731127E02E8C8D8E110CC00FB607FC19
:1003D000FACFE889F989808185FFF5CFCE010E94A7
:1003E0009201F1CFEB8DEC0FFD2FF11DE35AFF4F82
:1003F000F0829FB7F8940B8FEA89FB898081806235
:10040000CFCFCF93DF93EC01888D8823B9F0AA89F1
:10041000BB89E889F9898C9185FD03C0808186FDBF
:100420000DC00FB607FCF7CF8C9185FFF2CF80810E
:1004300085FFEDCFCE010E949201E9CFDF91CF91F0
:100440000895CF93DF93FC0101900020E9F73197E5
:10045000AF01481B590BBC0186E991E00E941401D1
:10046000EC0142E050E062E171E086E991E00E9437
:1004700014018C0F9D1FDF91CF9108951F920F9251
:100480000FB60F9211242F933F938F939F93AF93A7
:10049000BF938091920190919301A0919401B091AA
:1004A00095013091910123E0230F2D3758F50196E6
:1004B000A11DB11D2093910180939201909393010E
:1004C000A0939401B093950180918D0190918E013C
:1004D000A0918F01B09190010196A11DB11D809353
:1004E0008D0190938E01A0938F01B0939001BF91E5
:1004F000AF919F918F913F912F910F900FBE0F90D1
:100500001F90189526E8230F0296A11DB11DD2CF8A
:100510001F920F920FB60F9211242F933F934F9378
:100520005F936F937F938F939F93AF93BF93EF935B
:10053000FF9386E991E00E949201FF91EF91BF91B4
:10054000AF919F918F917F916F915F914F913F916B
:100550002F910F900FBE0F901F9018951F920F9222
:100560000FB60F9211242F938F939F93EF93FF93C6
:10057000E091A601F091A7018081E091AC01F0919A
:10058000AD0182FD1BC090818091AF018F5F8F73A1
:100590002091B001821741F0E091AF01F0E0EA56FE
:1005A000FE4F958F8093AF01FF91EF919F918F91B7
:1005B0002F910F900FBE0F901F9018958081F4CF50
:1005C000789484B5826084BD84B5816084BD85B52E
:1005D000826085BD85B5816085BD80916E0081603A
:1005E00080936E00109281008091810082608093E0
:1005F00081008091810081608093810080918000E2
:100600008160809380008091B10084608093B1000C
:100610008091B00081608093B00080917A00846006
:1006200080937A0080917A00826080937A00809132
:100630007A00816080937A0080917A00806880934C
:100640007A001092C10060E08EE00E94E30061E059
:1006500082E00E94E30061E083E00E94E300E09119
:10066000A601F091A70182E08083E091A201F091C0
:10067000A3011082E091A401F091A5018FEC808389
:100680001092AE01E091AA01F091AB0186E0808367
:10069000E091A801F091A901808180618083E091BF
:1006A000A801F091A901808188608083E091A80170
:1006B000F091A901808180688083E091A801F09188
:1006C000A90180818F7D8083CCEBD0E008EA10E027
:1006D00094E9E92E90E0F92E24EF822E9924939448
:1006E000A12CB12C30E0C32E30E0D32EFE0184913A
:1006F000F8017490F7016490662049F181110E941D
:100700008C00E62DF0E0EE0FFF1FE859FF4FA5919A
:10071000B4918C917822D9F080918C01882321F0BA
:1007200080E691E00E9421021092880110928901D6
:1007300010928A0110928B0160E082E00E94B50065
:1007400060E083E00E94B50010928C0159C0809156
:10075000880190918901A0918A01B0918B01892B28
:100760008A2B8B2BB9F42FB7F8948091920190913A
:100770009301A0919401B09195012FBF80938801BE
:1007800090938901A0938A01B0938B0185E191E058
:100790000E9421022FB7F8948091920190919301C9
:1007A000A0919401B09195012FBF40918801509183
:1007B000890160918A0170918B01841B950BA60BB6
:1007C000B70BAC01BD01405D574061097109483E5E
:1007D00053406105710500F52FB7F89460919201BF
:1007E0007091930180919401909195012FBFA50183
:1007F00094010E945204622F617083E00E94B50050
:10080000C114D10409F472CF0E947E01882309F437
:100810006DCF0E9400006ACF883B9B40A105B105C7
:1008200078F380918C018111EBCF61E083E00E942D
:10083000B50061E082E00E94B50081E080938C0108
:1008400081E391E00E942102DBCFE6E9F1E013822F
:10085000128288EE93E0A0E0B0E084839583A683C3
:10086000B78384E091E09183808385EC90E0958765
:10087000848784EC90E09787868780EC90E0918B6A
:10088000808B81EC90E0938B828B82EC90E0958B57
:10089000848B86EC90E0978B868B118E128E138E54
:1008A000148E0895A1E21A2EAA1BBB1BFD010DC0D8
:1008B000AA1FBB1FEE1FFF1FA217B307E407F50710
:1008C00020F0A21BB30BE40BF50B661F771F881FEC
:1008D000991F1A9469F760957095809590959B0182
:1008E000AC01BD01CF010895EE0FFF1F0590F491FB
:0808F000E02D0994F894FFCFFC
:1008F80000000000B401140141010102720150011D
:1009080064010D0A004579657320636C6F73656433
:10091800202D2074696D657220737461727465642A
:1009280000416C65727420747269676765726564EA
:100938002061667465722033207365636F6E64731B
:10094800206F66206579657320636C6F736564003A
:1009580045796573206F70656E6564202D2062751A
:100968007A7A657220616E64204C454420747572F1
:080978006E6564206F666600E5
:00000001FF
